{
  "contractName": "Doctor",
  "abi": [
    {
      "inputs": [
        {
          "internalType": "string",
          "name": "_name",
          "type": "string"
        },
        {
          "internalType": "uint256",
          "name": "_age",
          "type": "uint256"
        }
      ],
      "payable": true,
      "stateMutability": "payable",
      "type": "constructor"
    },
    {
      "constant": true,
      "inputs": [],
      "name": "age",
      "outputs": [
        {
          "internalType": "uint256",
          "name": "",
          "type": "uint256"
        }
      ],
      "payable": false,
      "stateMutability": "view",
      "type": "function"
    },
    {
      "constant": true,
      "inputs": [],
      "name": "doctor_sign",
      "outputs": [
        {
          "internalType": "bytes32",
          "name": "",
          "type": "bytes32"
        }
      ],
      "payable": false,
      "stateMutability": "view",
      "type": "function"
    },
    {
      "constant": false,
      "inputs": [],
      "name": "getAddress",
      "outputs": [
        {
          "internalType": "address",
          "name": "",
          "type": "address"
        }
      ],
      "payable": false,
      "stateMutability": "nonpayable",
      "type": "function"
    },
    {
      "constant": false,
      "inputs": [],
      "name": "increamentAge",
      "outputs": [],
      "payable": false,
      "stateMutability": "nonpayable",
      "type": "function"
    },
    {
      "constant": true,
      "inputs": [],
      "name": "name",
      "outputs": [
        {
          "internalType": "string",
          "name": "",
          "type": "string"
        }
      ],
      "payable": false,
      "stateMutability": "view",
      "type": "function"
    },
    {
      "constant": true,
      "inputs": [],
      "name": "owner",
      "outputs": [
        {
          "internalType": "address",
          "name": "",
          "type": "address"
        }
      ],
      "payable": false,
      "stateMutability": "view",
      "type": "function"
    },
    {
      "constant": true,
      "inputs": [],
      "name": "get_sign",
      "outputs": [
        {
          "internalType": "bytes32",
          "name": "",
          "type": "bytes32"
        }
      ],
      "payable": false,
      "stateMutability": "view",
      "type": "function"
    }
  ],
  "bytecode": "0x608060405260405161050c38038061050c8339818101604052604081101561002657600080fd5b810190808051604051939291908464010000000082111561004657600080fd5b90830190602082018581111561005b57600080fd5b825164010000000081118282018810171561007557600080fd5b82525081516020918201929091019080838360005b838110156100a257818101518382015260200161008a565b50505050905090810190601f1680156100cf5780820380516001836020036101000a031916815260200191505b5060405260200151915082905081600080546001600160a01b0319163317905581516101029060019060208501906101a8565b508060028190555050504260016002544460405160200180858152602001848054600181600116156101000203166002900480156101775780601f10610155576101008083540402835291820191610177565b820191906000526020600020905b815481529060010190602001808311610163575b5050928352506020808301919091526040805180840383018152928101905281519101206003555061024392505050565b828054600181600116156101000203166002900490600052602060002090601f016020900481019282601f106101e957805160ff1916838001178555610216565b82800160010185558215610216579182015b828111156102165782518255916020019190600101906101fb565b50610222929150610226565b5090565b61024091905b80821115610222576000815560010161022c565b90565b6102ba806102526000396000f3fe608060405234801561001057600080fd5b506004361061007c5760003560e01c806338cc48311161005b57806338cc483114610120578063401b45bf146101445780634dbc20991461014e5780638da5cb5b146101565761007c565b80626072521461008157806306fdde031461009b578063262a9dff14610118575b600080fd5b61008961015e565b60408051918252519081900360200190f35b6100a3610164565b6040805160208082528351818301528351919283929083019185019080838360005b838110156100dd5781810151838201526020016100c5565b50505050905090810190601f16801561010a5780820380516001836020036101000a031916815260200191505b509250505060405180910390f35b6100896101f1565b6101286101f7565b604080516001600160a01b039092168252519081900360200190f35b61014c610206565b005b610089610270565b610128610276565b60035490565b60018054604080516020600284861615610100026000190190941693909304601f810184900484028201840190925281815292918301828280156101e95780601f106101be576101008083540402835291602001916101e9565b820191906000526020600020905b8154815290600101906020018083116101cc57829003601f168201915b505050505081565b60025481565b6000546001600160a01b031690565b6000546001600160a01b03163314610265576040805162461bcd60e51b815260206004820152601c60248201527f4572726f723a204f6e6c79206f776e657220617574686f726973656400000000604482015290519081900360640190fd5b600280546001019055565b60035481565b6000546001600160a01b03168156fea265627a7a72315820575756bf29b01b3603a2556d86eb956cd0455a18debbdf6cb7a2d218e014562e64736f6c63430005100032",
  "source": "pragma solidity ^0.5.16;\r\nimport \"./Person.sol\";\r\n\r\ncontract Doctor is Person{\r\n   \r\n   bytes32 public doctor_sign;\r\n   \r\n    constructor (string memory _name, uint _age ) public  payable Person(_name, _age){\r\n         doctor_sign = keccak256(abi.encodePacked(block.timestamp,name,age,block.difficulty));\r\n    }\r\n    function get_sign() public view returns(bytes32){\r\n        return doctor_sign;\r\n    }\r\n    \r\n}",
  "sourcePath": "C:\\Users\\Pratik\\Documents\\GitHub\\SmartContractEssentials_FinalProject\\ERC721_Hospital\\ERC721_Hospital\\contracts\\Doctor.sol",
  "compiler": {
    "name": "solc",
    "version": "0.5.16+commit.9c3226ce.Emscripten.clang"
  },
  "schemaVersion": "3.0.22",
  "updatedAt": "2020-01-27T03:01:43.659Z",
  "devdoc": {
    "methods": {}
  },
  "userdoc": {
    "methods": {}
  }
}