{
  "contractName": "Drug",
  "abi": [
    {
      "inputs": [
        {
          "internalType": "string",
          "name": "_name",
          "type": "string"
        }
      ],
      "payable": false,
      "stateMutability": "nonpayable",
      "type": "constructor"
    },
    {
      "constant": true,
      "inputs": [],
      "name": "generic",
      "outputs": [
        {
          "internalType": "bool",
          "name": "",
          "type": "bool"
        }
      ],
      "payable": false,
      "stateMutability": "view",
      "type": "function"
    },
    {
      "constant": true,
      "inputs": [],
      "name": "name",
      "outputs": [
        {
          "internalType": "string",
          "name": "",
          "type": "string"
        }
      ],
      "payable": false,
      "stateMutability": "view",
      "type": "function"
    },
    {
      "constant": true,
      "inputs": [],
      "name": "owner",
      "outputs": [
        {
          "internalType": "address",
          "name": "",
          "type": "address"
        }
      ],
      "payable": false,
      "stateMutability": "view",
      "type": "function"
    },
    {
      "constant": true,
      "inputs": [],
      "name": "prescribed",
      "outputs": [
        {
          "internalType": "bool",
          "name": "",
          "type": "bool"
        }
      ],
      "payable": false,
      "stateMutability": "view",
      "type": "function"
    },
    {
      "constant": true,
      "inputs": [],
      "name": "quantity",
      "outputs": [
        {
          "internalType": "uint256",
          "name": "",
          "type": "uint256"
        }
      ],
      "payable": false,
      "stateMutability": "view",
      "type": "function"
    },
    {
      "constant": false,
      "inputs": [
        {
          "internalType": "bool",
          "name": "_pres",
          "type": "bool"
        }
      ],
      "name": "set_prescribed",
      "outputs": [],
      "payable": false,
      "stateMutability": "nonpayable",
      "type": "function"
    },
    {
      "constant": false,
      "inputs": [
        {
          "internalType": "uint256",
          "name": "_quan",
          "type": "uint256"
        }
      ],
      "name": "set_quantity",
      "outputs": [],
      "payable": false,
      "stateMutability": "nonpayable",
      "type": "function"
    },
    {
      "constant": false,
      "inputs": [
        {
          "internalType": "bool",
          "name": "_gene",
          "type": "bool"
        }
      ],
      "name": "set_generic",
      "outputs": [],
      "payable": false,
      "stateMutability": "nonpayable",
      "type": "function"
    }
  ],
  "bytecode": "0x608060405234801561001057600080fd5b506040516106283803806106288339818101604052602081101561003357600080fd5b810190808051604051939291908464010000000082111561005357600080fd5b90830190602082018581111561006857600080fd5b825164010000000081118282018810171561008257600080fd5b82525081516020918201929091019080838360005b838110156100af578181015183820152602001610097565b50505050905090810190601f1680156100dc5780820380516001836020036101000a031916815260200191505b506040525050600080546001600160a01b03191633179055508051610108906001906020840190610123565b505060006002556003805461ffff19166101001790556101be565b828054600181600116156101000203166002900490600052602060002090601f016020900481019282601f1061016457805160ff1916838001178555610191565b82800160010185558215610191579182015b82811115610191578251825591602001919060010190610176565b5061019d9291506101a1565b5090565b6101bb91905b8082111561019d57600081556001016101a7565b90565b61045b806101cd6000396000f3fe608060405234801561001057600080fd5b50600436106100885760003560e01c806387ee7d101161005b57806387ee7d10146101645780638da5cb5b14610180578063992e94fd146101a4578063d745d60d146101c157610088565b806306fdde031461008d57806317fc45e21461010a5780632e31db54146101245780632f37922f14610145575b600080fd5b6100956101c9565b6040805160208082528351818301528351919283929083019185019080838360005b838110156100cf5781810151838201526020016100b7565b50505050905090810190601f1680156100fc5780820380516001836020036101000a031916815260200191505b509250505060405180910390f35b610112610256565b60408051918252519081900360200190f35b6101436004803603602081101561013a57600080fd5b5035151561025c565b005b6101436004803603602081101561015b57600080fd5b503515156102ce565b61016c610347565b604080519115158252519081900360200190f35b610188610355565b604080516001600160a01b039092168252519081900360200190f35b610143600480360360208110156101ba57600080fd5b5035610364565b61016c61041d565b60018054604080516020600284861615610100026000190190941693909304601f8101849004840282018401909252818152929183018282801561024e5780601f106102235761010080835404028352916020019161024e565b820191906000526020600020905b81548152906001019060200180831161023157829003601f168201915b505050505081565b60025481565b6000546001600160a01b031633146102bb576040805162461bcd60e51b815260206004820152601c60248201527f4572726f723a204f6e6c79206f776e657220617574686f726973656400000000604482015290519081900360640190fd5b6003805460ff1916911515919091179055565b6000546001600160a01b0316331461032d576040805162461bcd60e51b815260206004820152601c60248201527f4572726f723a204f6e6c79206f776e657220617574686f726973656400000000604482015290519081900360640190fd5b600380549115156101000261ff0019909216919091179055565b600354610100900460ff1681565b6000546001600160a01b031681565b6000546001600160a01b031633146103c3576040805162461bcd60e51b815260206004820152601c60248201527f4572726f723a204f6e6c79206f776e657220617574686f726973656400000000604482015290519081900360640190fd5b60008111610418576040805162461bcd60e51b815260206004820152601760248201527f4572726f723a20496e76616c6964207175616e74697479000000000000000000604482015290519081900360640190fd5b600255565b60035460ff168156fea265627a7a72315820f9613488ada98f2ffc9ac2ea548be01af58e83fc949703f8de3477fa27a29d7d64736f6c63430005100032",
  "source": "pragma solidity ^0.5.16;\r\n\r\ncontract Drug{\r\n    \r\n    address public owner;\r\n    string public name;\r\n    uint public quantity;\r\n    bool public prescribed;\r\n    bool public generic;\r\n    \r\n    \r\n    constructor (string memory _name) public{\r\n        owner=msg.sender;\r\n        name= _name;\r\n        quantity=0;\r\n        prescribed = false;\r\n        generic= true;\r\n    }\r\n    \r\n    function set_prescribed(bool _pres) public onlyOwner{\r\n        prescribed=_pres;\r\n    }\r\n    \r\n    function set_quantity(uint _quan) public onlyOwner{\r\n        require(_quan > 0 ,\"Error: Invalid quantity\");\r\n        quantity= _quan;\r\n    }\r\n    \r\n    function set_generic(bool _gene) public onlyOwner{\r\n        generic = _gene;\r\n    }\r\n    \r\n    modifier onlyOwner{\r\n        require(msg.sender==owner, \"Error: Only owner authorised\");\r\n        _;\r\n    }\r\n    \r\n}",
  "sourcePath": "C:\\Users\\Pratik\\Documents\\GitHub\\SmartContractEssentials_FinalProject\\ERC721_Hospital\\ERC721_Hospital\\contracts\\Drug.sol",
  "compiler": {
    "name": "solc",
    "version": "0.5.16+commit.9c3226ce.Emscripten.clang"
  },
  "schemaVersion": "3.0.22",
  "updatedAt": "2020-01-27T03:28:30.532Z",
  "devdoc": {
    "methods": {}
  },
  "userdoc": {
    "methods": {}
  }
}