{
  "contractName": "ERC721Token",
  "abi": [
    {
      "inputs": [
        {
          "internalType": "string",
          "name": "_name",
          "type": "string"
        },
        {
          "internalType": "string",
          "name": "_symbol",
          "type": "string"
        }
      ],
      "payable": false,
      "stateMutability": "nonpayable",
      "type": "constructor"
    },
    {
      "anonymous": false,
      "inputs": [
        {
          "indexed": true,
          "internalType": "address",
          "name": "_owner",
          "type": "address"
        },
        {
          "indexed": true,
          "internalType": "address",
          "name": "_approved",
          "type": "address"
        },
        {
          "indexed": true,
          "internalType": "uint256",
          "name": "_tokenId",
          "type": "uint256"
        }
      ],
      "name": "Approval",
      "type": "event"
    },
    {
      "anonymous": false,
      "inputs": [
        {
          "indexed": true,
          "internalType": "address",
          "name": "_owner",
          "type": "address"
        },
        {
          "indexed": true,
          "internalType": "address",
          "name": "_operator",
          "type": "address"
        },
        {
          "indexed": false,
          "internalType": "bool",
          "name": "_approved",
          "type": "bool"
        }
      ],
      "name": "ApprovalForAll",
      "type": "event"
    },
    {
      "anonymous": false,
      "inputs": [
        {
          "indexed": true,
          "internalType": "address",
          "name": "_from",
          "type": "address"
        },
        {
          "indexed": true,
          "internalType": "address",
          "name": "_to",
          "type": "address"
        },
        {
          "indexed": true,
          "internalType": "uint256",
          "name": "_tokenId",
          "type": "uint256"
        }
      ],
      "name": "Transfer",
      "type": "event"
    },
    {
      "anonymous": false,
      "inputs": [
        {
          "indexed": false,
          "internalType": "bytes",
          "name": "",
          "type": "bytes"
        }
      ],
      "name": "UserCalldata",
      "type": "event"
    },
    {
      "constant": true,
      "inputs": [],
      "name": "owner",
      "outputs": [
        {
          "internalType": "address",
          "name": "",
          "type": "address"
        }
      ],
      "payable": false,
      "stateMutability": "view",
      "type": "function"
    },
    {
      "constant": false,
      "inputs": [
        {
          "internalType": "address",
          "name": "_reciepent",
          "type": "address"
        }
      ],
      "name": "mint",
      "outputs": [],
      "payable": true,
      "stateMutability": "payable",
      "type": "function"
    },
    {
      "constant": true,
      "inputs": [
        {
          "internalType": "address",
          "name": "_owner",
          "type": "address"
        }
      ],
      "name": "balanceOf",
      "outputs": [
        {
          "internalType": "uint256",
          "name": "",
          "type": "uint256"
        }
      ],
      "payable": false,
      "stateMutability": "view",
      "type": "function"
    },
    {
      "constant": true,
      "inputs": [
        {
          "internalType": "uint256",
          "name": "_tokenId",
          "type": "uint256"
        }
      ],
      "name": "ownerOf",
      "outputs": [
        {
          "internalType": "address",
          "name": "",
          "type": "address"
        }
      ],
      "payable": false,
      "stateMutability": "view",
      "type": "function"
    },
    {
      "constant": false,
      "inputs": [
        {
          "internalType": "address",
          "name": "_from",
          "type": "address"
        },
        {
          "internalType": "address",
          "name": "_to",
          "type": "address"
        },
        {
          "internalType": "uint256",
          "name": "_tokenId",
          "type": "uint256"
        }
      ],
      "name": "safeTransferFrom",
      "outputs": [],
      "payable": true,
      "stateMutability": "payable",
      "type": "function"
    },
    {
      "constant": false,
      "inputs": [
        {
          "internalType": "address",
          "name": "_from",
          "type": "address"
        },
        {
          "internalType": "address",
          "name": "_to",
          "type": "address"
        },
        {
          "internalType": "uint256",
          "name": "_tokenId",
          "type": "uint256"
        },
        {
          "internalType": "bytes",
          "name": "data",
          "type": "bytes"
        }
      ],
      "name": "safeTransferFrom",
      "outputs": [],
      "payable": true,
      "stateMutability": "payable",
      "type": "function"
    },
    {
      "constant": false,
      "inputs": [
        {
          "internalType": "address",
          "name": "_from",
          "type": "address"
        },
        {
          "internalType": "address",
          "name": "_to",
          "type": "address"
        },
        {
          "internalType": "uint256",
          "name": "_tokenId",
          "type": "uint256"
        }
      ],
      "name": "transferFrom",
      "outputs": [],
      "payable": true,
      "stateMutability": "payable",
      "type": "function"
    },
    {
      "constant": false,
      "inputs": [
        {
          "internalType": "address",
          "name": "_approved",
          "type": "address"
        },
        {
          "internalType": "uint256",
          "name": "_tokenId",
          "type": "uint256"
        }
      ],
      "name": "approve",
      "outputs": [],
      "payable": true,
      "stateMutability": "payable",
      "type": "function"
    },
    {
      "constant": false,
      "inputs": [
        {
          "internalType": "address",
          "name": "_operator",
          "type": "address"
        },
        {
          "internalType": "bool",
          "name": "_approved",
          "type": "bool"
        }
      ],
      "name": "setApprovalForAll",
      "outputs": [],
      "payable": false,
      "stateMutability": "nonpayable",
      "type": "function"
    },
    {
      "constant": true,
      "inputs": [
        {
          "internalType": "uint256",
          "name": "_tokenId",
          "type": "uint256"
        }
      ],
      "name": "getApproved",
      "outputs": [
        {
          "internalType": "address",
          "name": "",
          "type": "address"
        }
      ],
      "payable": false,
      "stateMutability": "view",
      "type": "function"
    },
    {
      "constant": true,
      "inputs": [
        {
          "internalType": "address",
          "name": "_owner",
          "type": "address"
        },
        {
          "internalType": "address",
          "name": "_operator",
          "type": "address"
        }
      ],
      "name": "isApprovedForAll",
      "outputs": [
        {
          "internalType": "bool",
          "name": "",
          "type": "bool"
        }
      ],
      "payable": false,
      "stateMutability": "view",
      "type": "function"
    }
  ],
  "bytecode": "0x60806040523480156200001157600080fd5b5060405162000fa138038062000fa1833981810160405260408110156200003757600080fd5b81019080805160405193929190846401000000008211156200005857600080fd5b9083019060208201858111156200006e57600080fd5b82516401000000008111828201881017156200008957600080fd5b82525081516020918201929091019080838360005b83811015620000b85781810151838201526020016200009e565b50505050905090810190601f168015620000e65780820380516001836020036101000a031916815260200191505b50604052602001805160405193929190846401000000008211156200010a57600080fd5b9083019060208201858111156200012057600080fd5b82516401000000008111828201881017156200013b57600080fd5b82525081516020918201929091019080838360005b838110156200016a57818101518382015260200162000150565b50505050905090810190601f168015620001985780820380516001836020036101000a031916815260200191505b506040525050600080546001600160a01b03191633178155600455508151620001c9906005906020850190620001e8565b508051620001df906006906020840190620001e8565b5050506200028d565b828054600181600116156101000203166002900490600052602060002090601f016020900481019282601f106200022b57805160ff19168380011785556200025b565b828001600101855582156200025b579182015b828111156200025b5782518255916020019190600101906200023e565b50620002699291506200026d565b5090565b6200028a91905b8082111562000269576000815560010162000274565b90565b610d04806200029d6000396000f3fe60806040526004361061009c5760003560e01c80636a627842116100645780636a627842146101ab57806370a08231146101d15780638da5cb5b14610216578063a22cb4651461022b578063b88d4fde14610266578063e985e9c5146102f65761009c565b8063081812fc146100a1578063095ea7b3146100e757806323b872dd1461011557806342842e0e1461014b5780636352211e14610181575b600080fd5b3480156100ad57600080fd5b506100cb600480360360208110156100c457600080fd5b5035610345565b604080516001600160a01b039092168252519081900360200190f35b610113600480360360408110156100fd57600080fd5b506001600160a01b0381351690602001356103fa565b005b6101136004803603606081101561012b57600080fd5b506001600160a01b03813581169160208101359091169060400135610586565b6101136004803603606081101561016157600080fd5b506001600160a01b03813581169160208101359091169060400135610646565b34801561018d57600080fd5b506100cb600480360360208110156101a457600080fd5b50356108ad565b610113600480360360208110156101c157600080fd5b50356001600160a01b03166108c8565b3480156101dd57600080fd5b50610204600480360360208110156101f457600080fd5b50356001600160a01b03166109e9565b60408051918252519081900360200190f35b34801561022257600080fd5b506100cb610a6f565b34801561023757600080fd5b506101136004803603604081101561024e57600080fd5b506001600160a01b0381351690602001351515610a7e565b6101136004803603608081101561027c57600080fd5b6001600160a01b038235811692602081013590911691604082013591908101906080810160608201356401000000008111156102b757600080fd5b8201836020820111156102c957600080fd5b803590602001918460018302840111640100000000831117156102eb57600080fd5b509092509050610b40565b34801561030257600080fd5b506103316004803603604081101561031957600080fd5b506001600160a01b0381358116916020013516610c82565b604080519115158252519081900360200190f35b600080546001600160a01b03163314610393576040805162461bcd60e51b815260206004820152601c6024820152600080516020610cb0833981519152604482015290519081900360640190fd5b816103de576040805162461bcd60e51b8152602060048201526016602482015275115c9c9bdc8e88125b9d985b1a59081d1bdad95b925960521b604482015290519081900360640190fd5b506000908152600260205260409020546001600160a01b031690565b81336001600160a01b038216148061041c57506000546001600160a01b031633145b610466576040805162461bcd60e51b815260206004820152601660248201527522b93937b91d1024b73b30b634b21034b73b37b5b2b960511b604482015290519081900360640190fd5b336000908152600160205260409020546104c7576040805162461bcd60e51b815260206004820152601d60248201527f4572726f723a20546f6b656e496420646f6573206e6f74206578697374000000604482015290519081900360640190fd5b6000828152600260205260409020546001600160a01b03163314610532576040805162461bcd60e51b815260206004820152601860248201527f4572726f723a204e6f74206120746f6b656e206f776e65720000000000000000604482015290519081900360640190fd5b3360008181526003602090815260408083206001600160a01b038816808552925280832086905551859391927f8c5be1e5ebec7d5bd14f71427d1e84f3dd0314c0f7b2291e5b200ac8c7c3b92591a4505050565b6000546001600160a01b031633146105d3576040805162461bcd60e51b815260206004820152601c6024820152600080516020610cb0833981519152604482015290519081900360640190fd5b60408051632142170760e11b81526001600160a01b0385811660048301528416602482015260448101839052905130916342842e0e91606480830192600092919082900301818387803b15801561062957600080fd5b505af115801561063d573d6000803e3d6000fd5b50505050505050565b82336001600160a01b038216148061066857506000546001600160a01b031633145b6106b2576040805162461bcd60e51b815260206004820152601660248201527522b93937b91d1024b73b30b634b21034b73b37b5b2b960511b604482015290519081900360640190fd5b336001600160a01b03851614610708576040805162461bcd60e51b815260206004820152601660248201527522b93937b91d1024b73b30b634b21034b73b37b5b2b960511b604482015290519081900360640190fd5b8161075a576040805162461bcd60e51b815260206004820152601760248201527f4572726f723a20496e76616c696420746f6b656e204964000000000000000000604482015290519081900360640190fd5b6001600160a01b03841660009081526001602052604090205482146107bd576040805162461bcd60e51b815260206004820152601460248201527322b93937b91d1024b73b30b634b21027bbb732b960611b604482015290519081900360640190fd5b6001600160a01b038085166000908152600360209081526040808320938716835292905220548214610836576040805162461bcd60e51b815260206004820152601c60248201527f4572726f723a205472616e73666572206e6f7420617070726f76656400000000604482015290519081900360640190fd5b6001600160a01b0384811660008181526001602081815260408084208490558784526002825280842080546001600160a01b031916968a16968717905585845291905280822086905551859392917fddf252ad1be2c89b69c2b068fc378daa952ba7f163c4a11628f55a4df523b3ef91a450505050565b6000908152600260205260409020546001600160a01b031690565b6000546001600160a01b03163314610915576040805162461bcd60e51b815260206004820152601c6024820152600080516020610cb0833981519152604482015290519081900360640190fd5b6001600160a01b038116610969576040805162461bcd60e51b81526020600482015260166024820152754572726f723a20496e76616c6964206164647265737360501b604482015290519081900360640190fd5b600480546001018082556000805460408051632142170760e11b81526001600160a01b039283169581019590955290851660248501526044840192909252905130926342842e0e92606480830193919282900301818387803b1580156109ce57600080fd5b505af11580156109e2573d6000803e3d6000fd5b5050505050565b6001600160a01b038116600090815260016020526040812054610a53576040805162461bcd60e51b815260206004820152601a60248201527f4572726f723a204f776e657220646f65736e2774206578697374000000000000604482015290519081900360640190fd5b506001600160a01b031660009081526001602052604090205490565b6000546001600160a01b031681565b6000546001600160a01b03163314610acb576040805162461bcd60e51b815260206004820152601c6024820152600080516020610cb0833981519152604482015290519081900360640190fd5b6001600160a01b03821660008181526001602052604080822054815163095ea7b360e01b81526004810194909452602484015251309263095ea7b392604480830193919282900301818387803b158015610b2457600080fd5b505af1158015610b38573d6000803e3d6000fd5b505050505050565b84336001600160a01b0382161480610b6257506000546001600160a01b031633145b610bac576040805162461bcd60e51b815260206004820152601660248201527522b93937b91d1024b73b30b634b21034b73b37b5b2b960511b604482015290519081900360640190fd5b60408051632142170760e11b81526001600160a01b0388811660048301528716602482015260448101869052905130916342842e0e91606480830192600092919082900301818387803b158015610c0257600080fd5b505af1158015610c16573d6000803e3d6000fd5b505050507fc52106501c3339856b35ff318f9a898438fbf02d8c158a252d51f93e336e10c4838360405180806020018281038252848482818152602001925080828437600083820152604051601f909101601f19169092018290039550909350505050a1505050505050565b6001600160a01b03918216600090815260036020908152604080832093909416825291909152205415159056fe4572726f723a204f6e6c79206f776e657220617574686f726973656400000000a265627a7a72315820d39307e9271e56ac54f11aab74155d747ca67fc6e3a3326605820d4af66c88e264736f6c63430005100032",
  "source": "pragma solidity ^0.5.16;\r\n\r\nimport \"./ERC721Interface.sol\";\r\n\r\ncontract ERC721Token is ERC721 {\r\n    address public owner;\r\n    event Transfer(address indexed _from, address indexed _to, uint256 indexed _tokenId);\r\n    event Approval(address indexed _owner, address indexed _approved, uint256 indexed _tokenId);\r\n    event ApprovalForAll(address indexed _owner, address indexed _operator, bool _approved);\r\n    event UserCalldata(bytes);\r\n    mapping(address=> uint256)                    tokens;\r\n    mapping(uint256 => address)                   token_owner;\r\n    mapping(address=>mapping(address=>uint256))   approved;\r\n    uint256 token_count;\r\n    string name;\r\n    string symbol;\r\n    constructor(string memory _name, string memory _symbol) public{\r\n        owner=msg.sender;\r\n        token_count=0;\r\n        name=_name;\r\n        symbol=_symbol;\r\n    }\r\n    \r\n    function mint(address _reciepent) external payable onlyOwner{\r\n        require(_reciepent!=address(0),\"Error: Invalid address\");\r\n        token_count++;\r\n        this.safeTransferFrom(owner,_reciepent,token_count);\r\n        \r\n    }\r\n    \r\n    function balanceOf(address _owner) external view returns (uint256){\r\n        require(tokens[_owner]!= 0,\"Error: Owner doesn't exist\");\r\n        return tokens[_owner];\r\n    }\r\n    \r\n    function ownerOf(uint256 _tokenId) external view returns (address){\r\n        return(token_owner[_tokenId]);\r\n    }\r\n   \r\n    function safeTransferFrom(address _from, address _to, uint256 _tokenId, bytes calldata data) external payable onlySender(_from) {\r\n        this.safeTransferFrom(_from,_to,_tokenId);\r\n        emit UserCalldata(data);\r\n    }\r\n    \r\n    function safeTransferFrom(address _from, address _to, uint256 _tokenId) external payable onlySender(_from) {\r\n        require(msg.sender==_from,\"Error: Invalid invoker\");\r\n        require(_tokenId!=0,\"Error: Invalid token Id\");\r\n        require(tokens[_from]==_tokenId,\"Error: Invalid Owner\");\r\n        require(approved[_from][_to]==_tokenId,\"Error: Transfer not approved\");\r\n        tokens[_from]=0;\r\n        token_owner[_tokenId]=_to;\r\n        tokens[_to]=_tokenId;\r\n        emit Transfer(_from, _to, _tokenId);\r\n    }\r\n    \r\n    function transferFrom(address _from, address _to, uint256 _tokenId) external payable onlyOwner{\r\n        this.safeTransferFrom(_from,_to,_tokenId);\r\n    }\r\n    function approve(address _approved, uint256 _tokenId) external payable onlySender(_approved){\r\n        require(tokens[msg.sender]!=0,\"Error: TokenId does not exist\");\r\n        require(token_owner[_tokenId]==msg.sender,\"Error: Not a token owner\");\r\n        approved[msg.sender][_approved]= _tokenId;\r\n        emit Approval(msg.sender, _approved, _tokenId);\r\n    }\r\n    \r\n    function setApprovalForAll(address _operator, bool _approved) external onlyOwner {\r\n        this.approve(_operator,tokens[_operator]);\r\n        \r\n    }\r\n    function getApproved(uint256 _tokenId) external onlyOwner view  returns (address) {\r\n        require(_tokenId !=0,\"Error: Invalid tokenId\");\r\n        return token_owner[_tokenId];\r\n    }\r\n    function isApprovedForAll(address _owner, address _operator) external view returns (bool){\r\n        return (approved[_owner][_operator]!=0);\r\n    }\r\n    \r\n    modifier onlyOwner{\r\n        require(msg.sender==owner, \"Error: Only owner authorised\");\r\n        _;\r\n    }\r\n    modifier onlySender(address _from){\r\n        require(msg.sender==_from || msg.sender == owner,\"Error: Invalid invoker\");\r\n        _;\r\n    }\r\n}\r\n",
  "sourcePath": "C:\\Users\\Pratik\\Documents\\GitHub\\SmartContractEssentials_FinalProject\\ERC721_Hospital\\ERC721_Hospital\\contracts\\ERC721Token.sol",
  "compiler": {
    "name": "solc",
    "version": "0.5.16+commit.9c3226ce.Emscripten.clang"
  },
  "schemaVersion": "3.0.22",
  "updatedAt": "2020-01-27T03:01:43.683Z",
  "devdoc": {
    "methods": {}
  },
  "userdoc": {
    "methods": {}
  }
}