{
  "contractName": "Hospital",
  "abi": [
    {
      "inputs": [
        {
          "internalType": "string",
          "name": "_name",
          "type": "string"
        },
        {
          "internalType": "string",
          "name": "_symbol",
          "type": "string"
        },
        {
          "internalType": "uint256",
          "name": "capacity",
          "type": "uint256"
        }
      ],
      "payable": true,
      "stateMutability": "payable",
      "type": "constructor"
    },
    {
      "anonymous": false,
      "inputs": [
        {
          "indexed": true,
          "internalType": "address",
          "name": "_owner",
          "type": "address"
        },
        {
          "indexed": true,
          "internalType": "address",
          "name": "_approved",
          "type": "address"
        },
        {
          "indexed": true,
          "internalType": "uint256",
          "name": "_tokenId",
          "type": "uint256"
        }
      ],
      "name": "Approval",
      "type": "event"
    },
    {
      "anonymous": false,
      "inputs": [
        {
          "indexed": true,
          "internalType": "address",
          "name": "_owner",
          "type": "address"
        },
        {
          "indexed": true,
          "internalType": "address",
          "name": "_operator",
          "type": "address"
        },
        {
          "indexed": false,
          "internalType": "bool",
          "name": "_approved",
          "type": "bool"
        }
      ],
      "name": "ApprovalForAll",
      "type": "event"
    },
    {
      "anonymous": false,
      "inputs": [
        {
          "indexed": true,
          "internalType": "address",
          "name": "_from",
          "type": "address"
        },
        {
          "indexed": true,
          "internalType": "address",
          "name": "_to",
          "type": "address"
        },
        {
          "indexed": true,
          "internalType": "uint256",
          "name": "_tokenId",
          "type": "uint256"
        }
      ],
      "name": "Transfer",
      "type": "event"
    },
    {
      "anonymous": false,
      "inputs": [
        {
          "indexed": false,
          "internalType": "bytes",
          "name": "",
          "type": "bytes"
        }
      ],
      "name": "UserCalldata",
      "type": "event"
    },
    {
      "constant": false,
      "inputs": [
        {
          "internalType": "address",
          "name": "_approved",
          "type": "address"
        },
        {
          "internalType": "uint256",
          "name": "_tokenId",
          "type": "uint256"
        }
      ],
      "name": "approve",
      "outputs": [],
      "payable": true,
      "stateMutability": "payable",
      "type": "function"
    },
    {
      "constant": true,
      "inputs": [
        {
          "internalType": "address",
          "name": "_owner",
          "type": "address"
        }
      ],
      "name": "balanceOf",
      "outputs": [
        {
          "internalType": "uint256",
          "name": "",
          "type": "uint256"
        }
      ],
      "payable": false,
      "stateMutability": "view",
      "type": "function"
    },
    {
      "constant": true,
      "inputs": [
        {
          "internalType": "uint256",
          "name": "_tokenId",
          "type": "uint256"
        }
      ],
      "name": "getApproved",
      "outputs": [
        {
          "internalType": "address",
          "name": "",
          "type": "address"
        }
      ],
      "payable": false,
      "stateMutability": "view",
      "type": "function"
    },
    {
      "constant": true,
      "inputs": [],
      "name": "getTokenCount",
      "outputs": [
        {
          "internalType": "uint256",
          "name": "",
          "type": "uint256"
        }
      ],
      "payable": false,
      "stateMutability": "view",
      "type": "function"
    },
    {
      "constant": true,
      "inputs": [
        {
          "internalType": "address",
          "name": "_owner",
          "type": "address"
        },
        {
          "internalType": "address",
          "name": "_operator",
          "type": "address"
        }
      ],
      "name": "isApprovedForAll",
      "outputs": [
        {
          "internalType": "bool",
          "name": "",
          "type": "bool"
        }
      ],
      "payable": false,
      "stateMutability": "view",
      "type": "function"
    },
    {
      "constant": false,
      "inputs": [
        {
          "internalType": "address",
          "name": "_reciepent",
          "type": "address"
        }
      ],
      "name": "mint",
      "outputs": [],
      "payable": true,
      "stateMutability": "payable",
      "type": "function"
    },
    {
      "constant": true,
      "inputs": [],
      "name": "owner",
      "outputs": [
        {
          "internalType": "address",
          "name": "",
          "type": "address"
        }
      ],
      "payable": false,
      "stateMutability": "view",
      "type": "function"
    },
    {
      "constant": true,
      "inputs": [
        {
          "internalType": "uint256",
          "name": "_tokenId",
          "type": "uint256"
        }
      ],
      "name": "ownerOf",
      "outputs": [
        {
          "internalType": "address",
          "name": "",
          "type": "address"
        }
      ],
      "payable": false,
      "stateMutability": "view",
      "type": "function"
    },
    {
      "constant": false,
      "inputs": [
        {
          "internalType": "address",
          "name": "_from",
          "type": "address"
        },
        {
          "internalType": "address",
          "name": "_to",
          "type": "address"
        },
        {
          "internalType": "uint256",
          "name": "_tokenId",
          "type": "uint256"
        }
      ],
      "name": "safeTransferFrom",
      "outputs": [],
      "payable": true,
      "stateMutability": "payable",
      "type": "function"
    },
    {
      "constant": false,
      "inputs": [
        {
          "internalType": "address",
          "name": "_from",
          "type": "address"
        },
        {
          "internalType": "address",
          "name": "_to",
          "type": "address"
        },
        {
          "internalType": "uint256",
          "name": "_tokenId",
          "type": "uint256"
        },
        {
          "internalType": "bytes",
          "name": "data",
          "type": "bytes"
        }
      ],
      "name": "safeTransferFrom",
      "outputs": [],
      "payable": true,
      "stateMutability": "payable",
      "type": "function"
    },
    {
      "constant": false,
      "inputs": [
        {
          "internalType": "address",
          "name": "_operator",
          "type": "address"
        },
        {
          "internalType": "bool",
          "name": "_approved",
          "type": "bool"
        }
      ],
      "name": "setApprovalForAll",
      "outputs": [],
      "payable": false,
      "stateMutability": "nonpayable",
      "type": "function"
    },
    {
      "constant": false,
      "inputs": [
        {
          "internalType": "address",
          "name": "_from",
          "type": "address"
        },
        {
          "internalType": "address",
          "name": "_to",
          "type": "address"
        },
        {
          "internalType": "uint256",
          "name": "_tokenId",
          "type": "uint256"
        }
      ],
      "name": "transferFrom",
      "outputs": [],
      "payable": true,
      "stateMutability": "payable",
      "type": "function"
    },
    {
      "constant": false,
      "inputs": [
        {
          "internalType": "contract Patient",
          "name": "P",
          "type": "address"
        }
      ],
      "name": "admitPatint",
      "outputs": [],
      "payable": false,
      "stateMutability": "nonpayable",
      "type": "function"
    },
    {
      "constant": false,
      "inputs": [
        {
          "internalType": "address",
          "name": "patient",
          "type": "address"
        },
        {
          "internalType": "address",
          "name": "drug_address",
          "type": "address"
        },
        {
          "internalType": "uint256",
          "name": "qty",
          "type": "uint256"
        },
        {
          "internalType": "uint256",
          "name": "valid_till",
          "type": "uint256"
        }
      ],
      "name": "prescribeDrug",
      "outputs": [],
      "payable": false,
      "stateMutability": "nonpayable",
      "type": "function"
    },
    {
      "constant": false,
      "inputs": [
        {
          "internalType": "address",
          "name": "P",
          "type": "address"
        },
        {
          "internalType": "address",
          "name": "D",
          "type": "address"
        }
      ],
      "name": "assignDoctor",
      "outputs": [],
      "payable": false,
      "stateMutability": "nonpayable",
      "type": "function"
    },
    {
      "constant": false,
      "inputs": [
        {
          "internalType": "contract Doctor",
          "name": "D",
          "type": "address"
        }
      ],
      "name": "addDoctor",
      "outputs": [],
      "payable": false,
      "stateMutability": "nonpayable",
      "type": "function"
    },
    {
      "constant": false,
      "inputs": [
        {
          "internalType": "address",
          "name": "D",
          "type": "address"
        }
      ],
      "name": "removeDoctor",
      "outputs": [],
      "payable": false,
      "stateMutability": "nonpayable",
      "type": "function"
    },
    {
      "constant": false,
      "inputs": [
        {
          "internalType": "contract Patient",
          "name": "P",
          "type": "address"
        }
      ],
      "name": "disChargePatient",
      "outputs": [],
      "payable": false,
      "stateMutability": "nonpayable",
      "type": "function"
    },
    {
      "constant": false,
      "inputs": [
        {
          "internalType": "address",
          "name": "P",
          "type": "address"
        }
      ],
      "name": "patientAlreadyExists",
      "outputs": [
        {
          "internalType": "bool",
          "name": "",
          "type": "bool"
        }
      ],
      "payable": false,
      "stateMutability": "nonpayable",
      "type": "function"
    },
    {
      "constant": false,
      "inputs": [
        {
          "internalType": "address",
          "name": "D",
          "type": "address"
        }
      ],
      "name": "doctortAlreadyExists",
      "outputs": [
        {
          "internalType": "bool",
          "name": "",
          "type": "bool"
        }
      ],
      "payable": false,
      "stateMutability": "nonpayable",
      "type": "function"
    }
  ],
  "bytecode": "0x60806040526040516200232838038062002328833981810160405260608110156200002957600080fd5b81019080805160405193929190846401000000008211156200004a57600080fd5b9083019060208201858111156200006057600080fd5b82516401000000008111828201881017156200007b57600080fd5b82525081516020918201929091019080838360005b83811015620000aa57818101518382015260200162000090565b50505050905090810190601f168015620000d85780820380516001836020036101000a031916815260200191505b5060405260200180516040519392919084640100000000821115620000fc57600080fd5b9083019060208201858111156200011257600080fd5b82516401000000008111828201881017156200012d57600080fd5b82525081516020918201929091019080838360005b838110156200015c57818101518382015260200162000142565b50505050905090810190601f1680156200018a5780820380516001836020036101000a031916815260200191505b50604052602090810151600080546001600160a01b0319163317815560045585519093508592508491620001c491600591850190620002c8565b508051620001da906006906020840190620002c8565b5050506000811162000233576040805162461bcd60e51b815260206004820152601760248201527f4572726f723a20496e76616c6964206361706163697479000000000000000000604482015290519081900360640190fd5b600a81905560408051828152602080840282010190915281801562000262578160200160208202803883390190505b50805162000279916007916020909101906200034d565b50600a54604051908082528060200260200182016040528015620002a7578160200160208202803883390190505b508051620002be916008916020909101906200034d565b50505050620003fa565b828054600181600116156101000203166002900490600052602060002090601f016020900481019282601f106200030b57805160ff19168380011785556200033b565b828001600101855582156200033b579182015b828111156200033b5782518255916020019190600101906200031e565b5062000349929150620003b3565b5090565b828054828255906000526020600020908101928215620003a5579160200282015b82811115620003a557825182546001600160a01b0319166001600160a01b039091161782556020909201916001909101906200036e565b5062000349929150620003d3565b620003d091905b80821115620003495760008155600101620003ba565b90565b620003d091905b80821115620003495780546001600160a01b0319168155600101620003da565b611f1e806200040a6000396000f3fe60806040526004361061011f5760003560e01c80636a351443116100a057806398fc90e91161006457806398fc90e914610427578063a22cb4651461045a578063b39a013e14610495578063b88d4fde146104c8578063e985e9c5146105585761011f565b80636a3514431461035f5780636a6278421461039257806370a08231146103b857806378a89567146103fd5780638da5cb5b146104125761011f565b806342842e0e116100e757806342842e0e146102525780634780468f146102885780634dc345d0146102bb5780634e6576f9146103025780636352211e146103355761011f565b8063081812fc14610124578063095ea7b31461016a578063166f8f451461019857806323b872dd146101d35780632e5ea51b14610209575b600080fd5b34801561013057600080fd5b5061014e6004803603602081101561014757600080fd5b5035610593565b604080516001600160a01b039092168252519081900360200190f35b6101966004803603604081101561018057600080fd5b506001600160a01b038135169060200135610648565b005b3480156101a457600080fd5b50610196600480360360408110156101bb57600080fd5b506001600160a01b03813581169160200135166107cb565b610196600480360360608110156101e957600080fd5b506001600160a01b0381358116916020810135909116906040013561092a565b34801561021557600080fd5b506101966004803603608081101561022c57600080fd5b506001600160a01b038135811691602081013590911690604081013590606001356109ea565b6101966004803603606081101561026857600080fd5b506001600160a01b03813581169160208101359091169060400135610cdb565b34801561029457600080fd5b50610196600480360360208110156102ab57600080fd5b50356001600160a01b0316610ecc565b3480156102c757600080fd5b506102ee600480360360208110156102de57600080fd5b50356001600160a01b0316611136565b604080519115158252519081900360200190f35b34801561030e57600080fd5b506101966004803603602081101561032557600080fd5b50356001600160a01b0316611154565b34801561034157600080fd5b5061014e6004803603602081101561035857600080fd5b50356113bf565b34801561036b57600080fd5b506101966004803603602081101561038257600080fd5b50356001600160a01b03166113da565b610196600480360360208110156103a857600080fd5b50356001600160a01b03166116b6565b3480156103c457600080fd5b506103eb600480360360208110156103db57600080fd5b50356001600160a01b03166117d0565b60408051918252519081900360200190f35b34801561040957600080fd5b506103eb611856565b34801561041e57600080fd5b5061014e61185d565b34801561043357600080fd5b506101966004803603602081101561044a57600080fd5b50356001600160a01b031661186c565b34801561046657600080fd5b506101966004803603604081101561047d57600080fd5b506001600160a01b0381351690602001351515611c0e565b3480156104a157600080fd5b506102ee600480360360208110156104b857600080fd5b50356001600160a01b0316611cd0565b610196600480360360808110156104de57600080fd5b6001600160a01b0382358116926020810135909116916040820135919081019060808101606082013564010000000081111561051957600080fd5b82018360208201111561052b57600080fd5b8035906020019184600183028401116401000000008311171561054d57600080fd5b509092509050611cee565b34801561056457600080fd5b506102ee6004803603604081101561057b57600080fd5b506001600160a01b0381358116916020013516611e30565b600080546001600160a01b031633146105e1576040805162461bcd60e51b815260206004820152601c6024820152600080516020611eca833981519152604482015290519081900360640190fd5b8161062c576040805162461bcd60e51b8152602060048201526016602482015275115c9c9bdc8e88125b9d985b1a59081d1bdad95b925960521b604482015290519081900360640190fd5b506000908152600260205260409020546001600160a01b031690565b6000546001600160a01b03163314610695576040805162461bcd60e51b815260206004820152601c6024820152600080516020611eca833981519152604482015290519081900360640190fd5b6001600160a01b0382166000908152600160205260409020546106ff576040805162461bcd60e51b815260206004820152601d60248201527f4572726f723a20546f6b656e496420646f6573206e6f74206578697374000000604482015290519081900360640190fd5b6000818152600260205260409020546001600160a01b0383811691161461076d576040805162461bcd60e51b815260206004820152601860248201527f4572726f723a204e6f74206120746f6b656e206f776e65720000000000000000604482015290519081900360640190fd5b6001600160a01b0380831660008181526003602090815260408083208354861684529091528082208590558154905185949190911692917f8c5be1e5ebec7d5bd14f71427d1e84f3dd0314c0f7b2291e5b200ac8c7c3b92591a45050565b6000546001600160a01b03163314610818576040805162461bcd60e51b815260206004820152601c6024820152600080516020611eca833981519152604482015290519081900360640190fd5b6001600160a01b0382166000908152600c602052604090205460ff16151560011461088a576040805162461bcd60e51b815260206004820152601b60248201527f4572726f723a2050617469656e74206e6f742061646d69747465640000000000604482015290519081900360640190fd5b6001600160a01b0381166000908152600d602052604090205460ff1615156001146108fc576040805162461bcd60e51b815260206004820152601d60248201527f4572726f723a20446f63746f7220646f6573206e6f7420657869737473000000604482015290519081900360640190fd5b6001600160a01b039182166000908152600b6020526040902080546001600160a01b03191691909216179055565b6000546001600160a01b03163314610977576040805162461bcd60e51b815260206004820152601c6024820152600080516020611eca833981519152604482015290519081900360640190fd5b60408051632142170760e11b81526001600160a01b0385811660048301528416602482015260448101839052905130916342842e0e91606480830192600092919082900301818387803b1580156109cd57600080fd5b505af11580156109e1573d6000803e3d6000fd5b50505050505050565b6001600160a01b038481166000908152600b6020526040902054163314610a425760405162461bcd60e51b8152600401808060200182810382526025815260200180611ea56025913960400191505060405180910390fd5b60005b600754811015610cd457846001600160a01b031660078281548110610a6657fe5b60009182526020918290200154604080516338cc483160e01b815290516001600160a01b03909216926338cc483192600480840193829003018186803b158015610aaf57600080fd5b505afa158015610ac3573d6000803e3d6000fd5b505050506040513d6020811015610ad957600080fd5b50516001600160a01b03161415610ccc5760005b600854811015610cca57336001600160a01b031660088281548110610b0e57fe5b60009182526020918290200154604080516338cc483160e01b815290516001600160a01b03909216926338cc483192600480840193829003018186803b158015610b5757600080fd5b505afa158015610b6b573d6000803e3d6000fd5b505050506040513d6020811015610b8157600080fd5b50516001600160a01b03161415610cc25760078281548110610b9f57fe5b9060005260206000200160009054906101000a90046001600160a01b03166001600160a01b031663cd7d258686868660088681548110610bdb57fe5b60009182526020918290200154604080516230392960e11b815290516001600160a01b03909216926260725292600480840193829003018186803b158015610c2257600080fd5b505afa158015610c36573d6000803e3d6000fd5b505050506040513d6020811015610c4c57600080fd5b5051604080516001600160e01b031960e088901b1681526001600160a01b03909516600486015260248501939093526044840191909152606483015251608480830192600092919082900301818387803b158015610ca957600080fd5b505af1158015610cbd573d6000803e3d6000fd5b505050505b600101610aed565b505b600101610a45565b5050505050565b6000546001600160a01b03163314610d28576040805162461bcd60e51b815260206004820152601c6024820152600080516020611eca833981519152604482015290519081900360640190fd5b80610d7a576040805162461bcd60e51b815260206004820152601760248201527f4572726f723a20496e76616c696420746f6b656e204964000000000000000000604482015290519081900360640190fd5b6001600160a01b0383166000908152600160205260409020548114610ddd576040805162461bcd60e51b815260206004820152601460248201527322b93937b91d1024b73b30b634b21027bbb732b960611b604482015290519081900360640190fd5b6001600160a01b038084166000908152600360209081526040808320938616835292905220548114610e56576040805162461bcd60e51b815260206004820152601c60248201527f4572726f723a205472616e73666572206e6f7420617070726f76656400000000604482015290519081900360640190fd5b6001600160a01b0383811660008181526001602081815260408084208490558684526002825280842080546001600160a01b031916968916968717905585845291905280822085905551849392917fddf252ad1be2c89b69c2b068fc378daa952ba7f163c4a11628f55a4df523b3ef91a4505050565b6000546001600160a01b03163314610f19576040805162461bcd60e51b815260206004820152601c6024820152600080516020611eca833981519152604482015290519081900360640190fd5b306001600160a01b0316634dc345d0826001600160a01b03166338cc48316040518163ffffffff1660e01b815260040160206040518083038186803b158015610f6157600080fd5b505afa158015610f75573d6000803e3d6000fd5b505050506040513d6020811015610f8b57600080fd5b5051604080516001600160e01b031960e085901b1681526001600160a01b0390921660048301525160248083019260209291908290030181600087803b158015610fd457600080fd5b505af1158015610fe8573d6000803e3d6000fd5b505050506040513d6020811015610ffe57600080fd5b505115611052576040805162461bcd60e51b815260206004820152601c60248201527f4572726f723a20446f63746f7220616c72656164792065786973747300000000604482015290519081900360640190fd5b600880546001808201835560009283527ff3f7a9fe364faab93b216da50a3214154f22a0a2b415b23a84c8169e8b636ee390910180546001600160a01b0319166001600160a01b038516908117909155604080516338cc483160e01b815290519293600d939092916338cc4831916004808301926020929190829003018186803b1580156110df57600080fd5b505afa1580156110f3573d6000803e3d6000fd5b505050506040513d602081101561110957600080fd5b50516001600160a01b031681526020810191909152604001600020805460ff191691151591909117905550565b6001600160a01b03166000908152600d602052604090205460ff1690565b6000546001600160a01b031633146111a1576040805162461bcd60e51b815260206004820152601c6024820152600080516020611eca833981519152604482015290519081900360640190fd5b600a54600754106111f9576040805162461bcd60e51b815260206004820152601d60248201527f4572726f723a20486f73706974616c2063617061636974792066756c6c000000604482015290519081900360640190fd5b306001600160a01b031663b39a013e826001600160a01b03166338cc48316040518163ffffffff1660e01b815260040160206040518083038186803b15801561124157600080fd5b505afa158015611255573d6000803e3d6000fd5b505050506040513d602081101561126b57600080fd5b5051604080516001600160e01b031960e085901b1681526001600160a01b0390921660048301525160248083019260209291908290030181600087803b1580156112b457600080fd5b505af11580156112c8573d6000803e3d6000fd5b505050506040513d60208110156112de57600080fd5b505115611332576040805162461bcd60e51b815260206004820152601d60248201527f4572726f723a2050617469656e7420616c726561647920657869737473000000604482015290519081900360640190fd5b600780546001808201835560009283527fa66cc928b5edb82af9bd49922954155ab7b0942694bea4ce44661d9a8736c68890910180546001600160a01b0319166001600160a01b038516908117909155604080516338cc483160e01b815290519293600c939092916338cc4831916004808301926020929190829003018186803b1580156110df57600080fd5b6000908152600260205260409020546001600160a01b031690565b6000546001600160a01b03163314611427576040805162461bcd60e51b815260206004820152601c6024820152600080516020611eca833981519152604482015290519081900360640190fd5b306001600160a01b031663b39a013e826001600160a01b03166338cc48316040518163ffffffff1660e01b815260040160206040518083038186803b15801561146f57600080fd5b505afa158015611483573d6000803e3d6000fd5b505050506040513d602081101561149957600080fd5b5051604080516001600160e01b031960e085901b1681526001600160a01b0390921660048301525160248083019260209291908290030181600087803b1580156114e257600080fd5b505af11580156114f6573d6000803e3d6000fd5b505050506040513d602081101561150c57600080fd5b505161155f576040805162461bcd60e51b815260206004820152601f60248201527f4572726f723a2050617469656e7420646f6573206e6f74202065786973747300604482015290519081900360640190fd5b60005b6007548110156116b257816001600160a01b03166338cc48316040518163ffffffff1660e01b815260040160206040518083038186803b1580156115a557600080fd5b505afa1580156115b9573d6000803e3d6000fd5b505050506040513d60208110156115cf57600080fd5b5051600780546001600160a01b0390921691839081106115eb57fe5b60009182526020918290200154604080516338cc483160e01b815290516001600160a01b03909216926338cc483192600480840193829003018186803b15801561163457600080fd5b505afa158015611648573d6000803e3d6000fd5b505050506040513d602081101561165e57600080fd5b50516001600160a01b031614156116aa576007818154811061167c57fe5b600091825260209091200180546001600160a01b031916905560078054906116a8906000198301611e5d565b505b600101611562565b5050565b6000546001600160a01b03163314611703576040805162461bcd60e51b815260206004820152601c6024820152600080516020611eca833981519152604482015290519081900360640190fd5b6001600160a01b038116611757576040805162461bcd60e51b81526020600482015260166024820152754572726f723a20496e76616c6964206164647265737360501b604482015290519081900360640190fd5b600480546001018082556000805460408051632142170760e11b81526001600160a01b039283169581019590955290851660248501526044840192909252905130926342842e0e92606480830193919282900301818387803b1580156117bc57600080fd5b505af1158015610cd4573d6000803e3d6000fd5b6001600160a01b03811660009081526001602052604081205461183a576040805162461bcd60e51b815260206004820152601a60248201527f4572726f723a204f776e657220646f65736e2774206578697374000000000000604482015290519081900360640190fd5b506001600160a01b031660009081526001602052604090205490565b6004545b90565b6000546001600160a01b031681565b6000546001600160a01b031633146118b9576040805162461bcd60e51b815260206004820152601c6024820152600080516020611eca833981519152604482015290519081900360640190fd5b604080516304dc345d60e41b81526001600160a01b038316600482015290513091634dc345d09160248083019260209291908290030181600087803b15801561190157600080fd5b505af1158015611915573d6000803e3d6000fd5b505050506040513d602081101561192b57600080fd5b505161197e576040805162461bcd60e51b815260206004820152601e60248201527f4572726f723a20446f63746f7220646f6573206e6f7420206578697374730000604482015290519081900360640190fd5b60005b600754811015611b0057816001600160a01b0316600b6000600784815481106119a657fe5b60009182526020918290200154604080516338cc483160e01b815290516001600160a01b03909216926338cc483192600480840193829003018186803b1580156119ef57600080fd5b505afa158015611a03573d6000803e3d6000fd5b505050506040513d6020811015611a1957600080fd5b50516001600160a01b039081168252602082019290925260400160002054161415611af8576000600b600060078481548110611a5157fe5b60009182526020918290200154604080516338cc483160e01b815290516001600160a01b03909216926338cc483192600480840193829003018186803b158015611a9a57600080fd5b505afa158015611aae573d6000803e3d6000fd5b505050506040513d6020811015611ac457600080fd5b50516001600160a01b039081168252602082019290925260400160002080546001600160a01b031916929091169190911790555b600101611981565b5060005b600854811015611bec57816001600160a01b031660088281548110611b2557fe5b60009182526020918290200154604080516338cc483160e01b815290516001600160a01b03909216926338cc483192600480840193829003018186803b158015611b6e57600080fd5b505afa158015611b82573d6000803e3d6000fd5b505050506040513d6020811015611b9857600080fd5b50516001600160a01b03161415611be45760088181548110611bb657fe5b600091825260209091200180546001600160a01b03191690556008805490611be2906000198301611e5d565b505b600101611b04565b506001600160a01b03166000908152600d60205260409020805460ff19169055565b6000546001600160a01b03163314611c5b576040805162461bcd60e51b815260206004820152601c6024820152600080516020611eca833981519152604482015290519081900360640190fd5b6001600160a01b03821660008181526001602052604080822054815163095ea7b360e01b81526004810194909452602484015251309263095ea7b392604480830193919282900301818387803b158015611cb457600080fd5b505af1158015611cc8573d6000803e3d6000fd5b505050505050565b6001600160a01b03166000908152600c602052604090205460ff1690565b84336001600160a01b0382161480611d1057506000546001600160a01b031633145b611d5a576040805162461bcd60e51b815260206004820152601660248201527522b93937b91d1024b73b30b634b21034b73b37b5b2b960511b604482015290519081900360640190fd5b60408051632142170760e11b81526001600160a01b0388811660048301528716602482015260448101869052905130916342842e0e91606480830192600092919082900301818387803b158015611db057600080fd5b505af1158015611dc4573d6000803e3d6000fd5b505050507fc52106501c3339856b35ff318f9a898438fbf02d8c158a252d51f93e336e10c4838360405180806020018281038252848482818152602001925080828437600083820152604051601f909101601f19169092018290039550909350505050a1505050505050565b6001600160a01b039182166000908152600360209081526040808320939094168252919091522054151590565b815481835581811115611e8157600083815260209020611e81918101908301611e86565b505050565b61185a91905b80821115611ea05760008155600101611e8c565b509056fe4572726f723a20446f63746f72206e6f742061737369676e656420746f2070617469656e744572726f723a204f6e6c79206f776e657220617574686f726973656400000000a265627a7a7231582085e3e5d964a5482bbcf3a08e9956c12949be70bfd08c0bc6d368e711b57a121d64736f6c63430005100032",
  "source": "pragma solidity ^0.5.16;\r\nimport \"./ERC721Token.sol\";\r\nimport \"./Drug.sol\";\r\nimport \"./Doctor.sol\";\r\nimport \"./Patient.sol\";\r\n\r\ncontract Hospital is ERC721Token{\r\n    \r\n    Patient[] patients;\r\n    Doctor[] doctors;\r\n    string name;\r\n    uint256 max_capacity;\r\n    mapping(address=>address)   doctor_assigned; \r\n    mapping(address => bool)    admitted_status;\r\n    mapping(address=> bool)     doctor_status;\r\n    \r\n    \r\n    constructor(string memory _name, string memory _symbol,uint256 capacity) public payable ERC721Token(_name,_symbol) {\r\n        require(capacity>0,\"Error: Invalid capacity\");\r\n        max_capacity = capacity;\r\n        patients = new Patient[](max_capacity);\r\n        doctors = new Doctor[](max_capacity);\r\n    }\r\n    \r\n    function admitPatint(Patient P) external onlyOwner{\r\n        require(patients.length<max_capacity,\"Error: Hospital capacity full\");\r\n        require(!this.patientAlreadyExists(P.getAddress()),\"Error: Patient already exists\");\r\n        patients.push(P);\r\n        admitted_status[P.getAddress()]=true;\r\n        \r\n    }\r\n    function prescribeDrug(address patient,address drug_address, uint256 qty, uint256 valid_till) external {\r\n        require(doctor_assigned[patient]==msg.sender,\"Error: Doctor not assigned to patient\");\r\n        for(uint i =0; i< patients.length; i++){\r\n            if (patients[i].getAddress()== patient)\r\n            {   \r\n                 for(uint j =0; j< doctors.length; j++){\r\n                 if (doctors[j].getAddress()== msg.sender)\r\n                {  \r\n                     patients[i].add_drug(drug_address, qty, valid_till, doctors[j].get_sign());\r\n                 }\r\n        }\r\n               \r\n            }\r\n        }\r\n        \r\n    }\r\n    function assignDoctor(address P, address D) external onlyOwner{\r\n        require(admitted_status[P]==true,\"Error: Patient not admitted\");\r\n        require(doctor_status[D]==true, \"Error: Doctor does not exists\");\r\n        doctor_assigned[P]=D;\r\n    }\r\n   function addDoctor(Doctor D) external onlyOwner{\r\n       require(!this.doctortAlreadyExists(D.getAddress()),\"Error: Doctor already exists\");\r\n       doctors.push(D);\r\n       doctor_status[D.getAddress()]=true;\r\n   }\r\n   function removeDoctor(address D) external onlyOwner{\r\n        require(this.doctortAlreadyExists(D),\"Error: Doctor does not  exists\");\r\n        for(uint i=0; i< patients.length;i++){\r\n            if(doctor_assigned[patients[i].getAddress()]==D)\r\n            {\r\n                doctor_assigned[patients[i].getAddress()]=address(0);\r\n            }\r\n        }\r\n        for(uint i=0; i< doctors.length;i++){\r\n            if(doctors[i].getAddress()==D){\r\n            delete doctors[i];\r\n            doctors.length--;\r\n            }\r\n        }\r\n        doctor_status[D]=false;\r\n    }\r\n    function disChargePatient(Patient P) external onlyOwner{\r\n        require(this.patientAlreadyExists(P.getAddress()),\"Error: Patient does not  exists\");\r\n        for(uint i=0; i< patients.length;i++){\r\n            if(patients[i].getAddress()==P.getAddress()){\r\n            delete patients[i];\r\n            patients.length--;\r\n            }\r\n        }\r\n    }\r\n    function patientAlreadyExists(address P) external returns(bool){\r\n        return admitted_status[P];\r\n    }\r\n    function doctortAlreadyExists(address D) external returns(bool){\r\n        return doctor_status[D];\r\n    }\r\n}",
  "sourcePath": "C:/Users/Pratik/Documents/GitHub/SmartContractEssentials_FinalProject/ERC721_Hospital/ERC721_Hospital/contracts/Hospital.sol",
  "compiler": {
    "name": "solc",
    "version": "0.5.16+commit.9c3226ce.Emscripten.clang"
  },
  "schemaVersion": "3.0.22",
  "updatedAt": "2020-01-27T04:45:58.838Z",
  "networkType": "ethereum",
  "devdoc": {
    "methods": {}
  },
  "userdoc": {
    "methods": {}
  }
}