{
  "contractName": "Person",
  "abi": [
    {
      "inputs": [
        {
          "internalType": "string",
          "name": "_name",
          "type": "string"
        },
        {
          "internalType": "uint256",
          "name": "_age",
          "type": "uint256"
        }
      ],
      "payable": false,
      "stateMutability": "nonpayable",
      "type": "constructor"
    },
    {
      "constant": true,
      "inputs": [],
      "name": "age",
      "outputs": [
        {
          "internalType": "uint256",
          "name": "",
          "type": "uint256"
        }
      ],
      "payable": false,
      "stateMutability": "view",
      "type": "function"
    },
    {
      "constant": true,
      "inputs": [],
      "name": "name",
      "outputs": [
        {
          "internalType": "string",
          "name": "",
          "type": "string"
        }
      ],
      "payable": false,
      "stateMutability": "view",
      "type": "function"
    },
    {
      "constant": true,
      "inputs": [],
      "name": "owner",
      "outputs": [
        {
          "internalType": "address",
          "name": "",
          "type": "address"
        }
      ],
      "payable": false,
      "stateMutability": "view",
      "type": "function"
    },
    {
      "constant": false,
      "inputs": [],
      "name": "increamentAge",
      "outputs": [],
      "payable": false,
      "stateMutability": "nonpayable",
      "type": "function"
    },
    {
      "constant": false,
      "inputs": [],
      "name": "getAddress",
      "outputs": [
        {
          "internalType": "address",
          "name": "",
          "type": "address"
        }
      ],
      "payable": false,
      "stateMutability": "nonpayable",
      "type": "function"
    }
  ],
  "bytecode": "0x608060405234801561001057600080fd5b5060405161043f38038061043f8339818101604052604081101561003357600080fd5b810190808051604051939291908464010000000082111561005357600080fd5b90830190602082018581111561006857600080fd5b825164010000000081118282018810171561008257600080fd5b82525081516020918201929091019080838360005b838110156100af578181015183820152602001610097565b50505050905090810190601f1680156100dc5780820380516001836020036101000a031916815260200191505b506040526020015191506100ed9050565b600080546001600160a01b03191633179055815161011290600190602085019061011c565b50600255506101b7565b828054600181600116156101000203166002900490600052602060002090601f016020900481019282601f1061015d57805160ff191683800117855561018a565b8280016001018555821561018a579182015b8281111561018a57825182559160200191906001019061016f565b5061019692915061019a565b5090565b6101b491905b8082111561019657600081556001016101a0565b90565b610279806101c66000396000f3fe608060405234801561001057600080fd5b50600436106100575760003560e01c806306fdde031461005c578063262a9dff146100d957806338cc4831146100f3578063401b45bf146101175780638da5cb5b14610121575b600080fd5b610064610129565b6040805160208082528351818301528351919283929083019185019080838360005b8381101561009e578181015183820152602001610086565b50505050905090810190601f1680156100cb5780820380516001836020036101000a031916815260200191505b509250505060405180910390f35b6100e16101b6565b60408051918252519081900360200190f35b6100fb6101bc565b604080516001600160a01b039092168252519081900360200190f35b61011f6101cb565b005b6100fb610235565b60018054604080516020600284861615610100026000190190941693909304601f810184900484028201840190925281815292918301828280156101ae5780601f10610183576101008083540402835291602001916101ae565b820191906000526020600020905b81548152906001019060200180831161019157829003601f168201915b505050505081565b60025481565b6000546001600160a01b031690565b6000546001600160a01b0316331461022a576040805162461bcd60e51b815260206004820152601c60248201527f4572726f723a204f6e6c79206f776e657220617574686f726973656400000000604482015290519081900360640190fd5b600280546001019055565b6000546001600160a01b03168156fea265627a7a723158200d843d9111869a150635ff19df8b8a9888204691b7023479e11dce52b5b8bdc564736f6c63430005100032",
  "source": "pragma solidity ^0.5.16;\r\n\r\n\r\ncontract Person{\r\n    address public owner;\r\n    string public name;\r\n    uint public age;\r\n   \r\n    \r\n    constructor (string memory _name, uint _age ) public{\r\n        require(_age>=0,\"Error: Invalid age\");\r\n        owner=msg.sender;\r\n        name =_name;\r\n        age = _age;\r\n    }\r\n    function increamentAge() public onlyOwner {\r\n        age++;\r\n    }\r\n    function getAddress() external returns (address){\r\n        return owner;\r\n    }\r\n    \r\n    modifier onlyOwner{\r\n        require(msg.sender==owner, \"Error: Only owner authorised\");\r\n        _;\r\n    }\r\n    \r\n}",
  "sourcePath": "C:\\Users\\Pratik\\Documents\\GitHub\\SmartContractEssentials_FinalProject\\ERC721_Hospital\\ERC721_Hospital\\contracts\\Person.sol",
  "compiler": {
    "name": "solc",
    "version": "0.5.16+commit.9c3226ce.Emscripten.clang"
  },
  "schemaVersion": "3.0.22",
  "updatedAt": "2020-01-27T03:01:43.702Z",
  "devdoc": {
    "methods": {}
  },
  "userdoc": {
    "methods": {}
  }
}